{
  "contractName": "SoongToken",
  "abi": [
    {
      "inputs": [],
      "stateMutability": "nonpayable",
      "type": "constructor"
    },
    {
      "anonymous": false,
      "inputs": [
        {
          "indexed": true,
          "internalType": "address",
          "name": "owner",
          "type": "address"
        },
        {
          "indexed": true,
          "internalType": "address",
          "name": "approved",
          "type": "address"
        },
        {
          "indexed": true,
          "internalType": "uint256",
          "name": "tokenId",
          "type": "uint256"
        }
      ],
      "name": "Approval",
      "type": "event"
    },
    {
      "anonymous": false,
      "inputs": [
        {
          "indexed": true,
          "internalType": "address",
          "name": "owner",
          "type": "address"
        },
        {
          "indexed": true,
          "internalType": "address",
          "name": "operator",
          "type": "address"
        },
        {
          "indexed": false,
          "internalType": "bool",
          "name": "approved",
          "type": "bool"
        }
      ],
      "name": "ApprovalForAll",
      "type": "event"
    },
    {
      "anonymous": false,
      "inputs": [
        {
          "indexed": true,
          "internalType": "address",
          "name": "previousOwner",
          "type": "address"
        },
        {
          "indexed": true,
          "internalType": "address",
          "name": "newOwner",
          "type": "address"
        }
      ],
      "name": "OwnershipTransferred",
      "type": "event"
    },
    {
      "anonymous": false,
      "inputs": [
        {
          "indexed": true,
          "internalType": "address",
          "name": "from",
          "type": "address"
        },
        {
          "indexed": true,
          "internalType": "address",
          "name": "to",
          "type": "address"
        },
        {
          "indexed": true,
          "internalType": "uint256",
          "name": "tokenId",
          "type": "uint256"
        }
      ],
      "name": "Transfer",
      "type": "event"
    },
    {
      "inputs": [
        {
          "internalType": "uint256",
          "name": "",
          "type": "uint256"
        }
      ],
      "name": "SoongToOwner",
      "outputs": [
        {
          "internalType": "address",
          "name": "",
          "type": "address"
        }
      ],
      "stateMutability": "view",
      "type": "function"
    },
    {
      "inputs": [
        {
          "internalType": "address",
          "name": "to",
          "type": "address"
        },
        {
          "internalType": "uint256",
          "name": "tokenId",
          "type": "uint256"
        }
      ],
      "name": "approve",
      "outputs": [],
      "stateMutability": "nonpayable",
      "type": "function"
    },
    {
      "inputs": [
        {
          "internalType": "address",
          "name": "owner",
          "type": "address"
        }
      ],
      "name": "balanceOf",
      "outputs": [
        {
          "internalType": "uint256",
          "name": "",
          "type": "uint256"
        }
      ],
      "stateMutability": "view",
      "type": "function"
    },
    {
      "inputs": [
        {
          "internalType": "uint256",
          "name": "tokenId",
          "type": "uint256"
        }
      ],
      "name": "getApproved",
      "outputs": [
        {
          "internalType": "address",
          "name": "",
          "type": "address"
        }
      ],
      "stateMutability": "view",
      "type": "function"
    },
    {
      "inputs": [
        {
          "internalType": "address",
          "name": "owner",
          "type": "address"
        },
        {
          "internalType": "address",
          "name": "operator",
          "type": "address"
        }
      ],
      "name": "isApprovedForAll",
      "outputs": [
        {
          "internalType": "bool",
          "name": "",
          "type": "bool"
        }
      ],
      "stateMutability": "view",
      "type": "function"
    },
    {
      "inputs": [],
      "name": "name",
      "outputs": [
        {
          "internalType": "string",
          "name": "",
          "type": "string"
        }
      ],
      "stateMutability": "view",
      "type": "function"
    },
    {
      "inputs": [],
      "name": "owner",
      "outputs": [
        {
          "internalType": "address",
          "name": "",
          "type": "address"
        }
      ],
      "stateMutability": "view",
      "type": "function"
    },
    {
      "inputs": [
        {
          "internalType": "uint256",
          "name": "tokenId",
          "type": "uint256"
        }
      ],
      "name": "ownerOf",
      "outputs": [
        {
          "internalType": "address",
          "name": "",
          "type": "address"
        }
      ],
      "stateMutability": "view",
      "type": "function"
    },
    {
      "inputs": [],
      "name": "renounceOwnership",
      "outputs": [],
      "stateMutability": "nonpayable",
      "type": "function"
    },
    {
      "inputs": [
        {
          "internalType": "address",
          "name": "from",
          "type": "address"
        },
        {
          "internalType": "address",
          "name": "to",
          "type": "address"
        },
        {
          "internalType": "uint256",
          "name": "tokenId",
          "type": "uint256"
        }
      ],
      "name": "safeTransferFrom",
      "outputs": [],
      "stateMutability": "nonpayable",
      "type": "function"
    },
    {
      "inputs": [
        {
          "internalType": "address",
          "name": "from",
          "type": "address"
        },
        {
          "internalType": "address",
          "name": "to",
          "type": "address"
        },
        {
          "internalType": "uint256",
          "name": "tokenId",
          "type": "uint256"
        },
        {
          "internalType": "bytes",
          "name": "_data",
          "type": "bytes"
        }
      ],
      "name": "safeTransferFrom",
      "outputs": [],
      "stateMutability": "nonpayable",
      "type": "function"
    },
    {
      "inputs": [
        {
          "internalType": "address",
          "name": "operator",
          "type": "address"
        },
        {
          "internalType": "bool",
          "name": "approved",
          "type": "bool"
        }
      ],
      "name": "setApprovalForAll",
      "outputs": [],
      "stateMutability": "nonpayable",
      "type": "function"
    },
    {
      "inputs": [
        {
          "internalType": "bytes4",
          "name": "interfaceId",
          "type": "bytes4"
        }
      ],
      "name": "supportsInterface",
      "outputs": [
        {
          "internalType": "bool",
          "name": "",
          "type": "bool"
        }
      ],
      "stateMutability": "view",
      "type": "function"
    },
    {
      "inputs": [],
      "name": "symbol",
      "outputs": [
        {
          "internalType": "string",
          "name": "",
          "type": "string"
        }
      ],
      "stateMutability": "view",
      "type": "function"
    },
    {
      "inputs": [
        {
          "internalType": "uint256",
          "name": "tokenId",
          "type": "uint256"
        }
      ],
      "name": "tokenURI",
      "outputs": [
        {
          "internalType": "string",
          "name": "",
          "type": "string"
        }
      ],
      "stateMutability": "view",
      "type": "function"
    },
    {
      "inputs": [
        {
          "internalType": "address",
          "name": "from",
          "type": "address"
        },
        {
          "internalType": "address",
          "name": "to",
          "type": "address"
        },
        {
          "internalType": "uint256",
          "name": "tokenId",
          "type": "uint256"
        }
      ],
      "name": "transferFrom",
      "outputs": [],
      "stateMutability": "nonpayable",
      "type": "function"
    },
    {
      "inputs": [
        {
          "internalType": "address",
          "name": "newOwner",
          "type": "address"
        }
      ],
      "name": "transferOwnership",
      "outputs": [],
      "stateMutability": "nonpayable",
      "type": "function"
    },
    {
      "inputs": [
        {
          "internalType": "string",
          "name": "tokenURI",
          "type": "string"
        }
      ],
      "name": "mintSoongToken",
      "outputs": [
        {
          "internalType": "uint256",
          "name": "",
          "type": "uint256"
        }
      ],
      "stateMutability": "nonpayable",
      "type": "function"
    }
  ],
  "bytecode": "0x60806040523480156200001157600080fd5b506040518060400160405280600a81526020017f536f6f6e67546f6b656e000000000000000000000000000000000000000000008152506040518060400160405280600381526020017f53544b0000000000000000000000000000000000000000000000000000000000815250816000908051906020019062000096929190620001a6565b508060019080519060200190620000af929190620001a6565b505050620000d2620000c6620000d860201b60201c565b620000e060201b60201c565b620002bb565b600033905090565b6000600760009054906101000a900473ffffffffffffffffffffffffffffffffffffffff16905081600760006101000a81548173ffffffffffffffffffffffffffffffffffffffff021916908373ffffffffffffffffffffffffffffffffffffffff1602179055508173ffffffffffffffffffffffffffffffffffffffff168173ffffffffffffffffffffffffffffffffffffffff167f8be0079c531659141344cd1fd0a4f28419497f9722a3daafe3b4186f6b6457e060405160405180910390a35050565b828054620001b49062000285565b90600052602060002090601f016020900481019282620001d8576000855562000224565b82601f10620001f357805160ff191683800117855562000224565b8280016001018555821562000224579182015b828111156200022357825182559160200191906001019062000206565b5b50905062000233919062000237565b5090565b5b808211156200025257600081600090555060010162000238565b5090565b7f4e487b7100000000000000000000000000000000000000000000000000000000600052602260045260246000fd5b600060028204905060018216806200029e57607f821691505b60208210811415620002b557620002b462000256565b5b50919050565b61309180620002cb6000396000f3fe608060405234801561001057600080fd5b50600436106101165760003560e01c8063715018a6116100a2578063b88d4fde11610071578063b88d4fde146102df578063c87b56dd146102fb578063df76176b1461032b578063e985e9c51461035b578063f2fde38b1461038b57610116565b8063715018a61461027d5780638da5cb5b1461028757806395d89b41146102a5578063a22cb465146102c357610116565b8063095ea7b3116100e9578063095ea7b3146101c957806323b872dd146101e557806342842e0e146102015780636352211e1461021d57806370a082311461024d57610116565b806301ffc9a71461011b57806304ca499a1461014b57806306fdde031461017b578063081812fc14610199575b600080fd5b61013560048036038101906101309190611d08565b6103a7565b6040516101429190611d50565b60405180910390f35b61016560048036038101906101609190611eb1565b610489565b6040516101729190611f13565b60405180910390f35b61018361058e565b6040516101909190611fb6565b60405180910390f35b6101b360048036038101906101ae9190612004565b610620565b6040516101c09190612072565b60405180910390f35b6101e360048036038101906101de91906120b9565b6106a5565b005b6101ff60048036038101906101fa91906120f9565b6107bd565b005b61021b600480360381019061021691906120f9565b61081d565b005b61023760048036038101906102329190612004565b61083d565b6040516102449190612072565b60405180910390f35b6102676004803603810190610262919061214c565b6108ef565b6040516102749190611f13565b60405180910390f35b6102856109a7565b005b61028f610a2f565b60405161029c9190612072565b60405180910390f35b6102ad610a59565b6040516102ba9190611fb6565b60405180910390f35b6102dd60048036038101906102d891906121a5565b610aeb565b005b6102f960048036038101906102f49190612286565b610b01565b005b61031560048036038101906103109190612004565b610b63565b6040516103229190611fb6565b60405180910390f35b61034560048036038101906103409190612004565b610cb5565b6040516103529190612072565b60405180910390f35b61037560048036038101906103709190612309565b610ce8565b6040516103829190611d50565b60405180910390f35b6103a560048036038101906103a0919061214c565b610d7c565b005b60007f80ac58cd000000000000000000000000000000000000000000000000000000007bffffffffffffffffffffffffffffffffffffffffffffffffffffffff1916827bffffffffffffffffffffffffffffffffffffffffffffffffffffffff1916148061047257507f5b5e139f000000000000000000000000000000000000000000000000000000007bffffffffffffffffffffffffffffffffffffffffffffffffffffffff1916827bffffffffffffffffffffffffffffffffffffffffffffffffffffffff1916145b80610482575061048182610e74565b5b9050919050565b6000610493610ede565b73ffffffffffffffffffffffffffffffffffffffff166104b1610a2f565b73ffffffffffffffffffffffffffffffffffffffff1614610507576040517f08c379a00000000000000000000000000000000000000000000000000000000081526004016104fe90612395565b60405180910390fd5b6105116008610ee6565b600061051d6008610efc565b9050336009600083815260200190815260200160002060006101000a81548173ffffffffffffffffffffffffffffffffffffffff021916908373ffffffffffffffffffffffffffffffffffffffff16021790555061057b3382610f0a565b61058581846110d8565b80915050919050565b60606000805461059d906123e4565b80601f01602080910402602001604051908101604052809291908181526020018280546105c9906123e4565b80156106165780601f106105eb57610100808354040283529160200191610616565b820191906000526020600020905b8154815290600101906020018083116105f957829003601f168201915b5050505050905090565b600061062b8261114c565b61066a576040517f08c379a000000000000000000000000000000000000000000000000000000000815260040161066190612488565b60405180910390fd5b6004600083815260200190815260200160002060009054906101000a900473ffffffffffffffffffffffffffffffffffffffff169050919050565b60006106b08261083d565b90508073ffffffffffffffffffffffffffffffffffffffff168373ffffffffffffffffffffffffffffffffffffffff161415610721576040517f08c379a00000000000000000000000000000000000000000000000000000000081526004016107189061251a565b60405180910390fd5b8073ffffffffffffffffffffffffffffffffffffffff16610740610ede565b73ffffffffffffffffffffffffffffffffffffffff16148061076f575061076e81610769610ede565b610ce8565b5b6107ae576040517f08c379a00000000000000000000000000000000000000000000000000000000081526004016107a5906125ac565b60405180910390fd5b6107b883836111b8565b505050565b6107ce6107c8610ede565b82611271565b61080d576040517f08c379a00000000000000000000000000000000000000000000000000000000081526004016108049061263e565b60405180910390fd5b61081883838361134f565b505050565b61083883838360405180602001604052806000815250610b01565b505050565b6000806002600084815260200190815260200160002060009054906101000a900473ffffffffffffffffffffffffffffffffffffffff169050600073ffffffffffffffffffffffffffffffffffffffff168173ffffffffffffffffffffffffffffffffffffffff1614156108e6576040517f08c379a00000000000000000000000000000000000000000000000000000000081526004016108dd906126d0565b60405180910390fd5b80915050919050565b60008073ffffffffffffffffffffffffffffffffffffffff168273ffffffffffffffffffffffffffffffffffffffff161415610960576040517f08c379a000000000000000000000000000000000000000000000000000000000815260040161095790612762565b60405180910390fd5b600360008373ffffffffffffffffffffffffffffffffffffffff1673ffffffffffffffffffffffffffffffffffffffff168152602001908152602001600020549050919050565b6109af610ede565b73ffffffffffffffffffffffffffffffffffffffff166109cd610a2f565b73ffffffffffffffffffffffffffffffffffffffff1614610a23576040517f08c379a0000000000000000000000000000000000000000000000000000000008152600401610a1a90612395565b60405180910390fd5b610a2d60006115ab565b565b6000600760009054906101000a900473ffffffffffffffffffffffffffffffffffffffff16905090565b606060018054610a68906123e4565b80601f0160208091040260200160405190810160405280929190818152602001828054610a94906123e4565b8015610ae15780601f10610ab657610100808354040283529160200191610ae1565b820191906000526020600020905b815481529060010190602001808311610ac457829003601f168201915b5050505050905090565b610afd610af6610ede565b8383611671565b5050565b610b12610b0c610ede565b83611271565b610b51576040517f08c379a0000000000000000000000000000000000000000000000000000000008152600401610b489061263e565b60405180910390fd5b610b5d848484846117de565b50505050565b6060610b6e8261114c565b610bad576040517f08c379a0000000000000000000000000000000000000000000000000000000008152600401610ba4906127f4565b60405180910390fd5b6000600660008481526020019081526020016000208054610bcd906123e4565b80601f0160208091040260200160405190810160405280929190818152602001828054610bf9906123e4565b8015610c465780601f10610c1b57610100808354040283529160200191610c46565b820191906000526020600020905b815481529060010190602001808311610c2957829003601f168201915b505050505090506000610c5761183a565b9050600081511415610c6d578192505050610cb0565b600082511115610ca2578082604051602001610c8a929190612850565b60405160208183030381529060405292505050610cb0565b610cab84611851565b925050505b919050565b60096020528060005260406000206000915054906101000a900473ffffffffffffffffffffffffffffffffffffffff1681565b6000600560008473ffffffffffffffffffffffffffffffffffffffff1673ffffffffffffffffffffffffffffffffffffffff16815260200190815260200160002060008373ffffffffffffffffffffffffffffffffffffffff1673ffffffffffffffffffffffffffffffffffffffff16815260200190815260200160002060009054906101000a900460ff16905092915050565b610d84610ede565b73ffffffffffffffffffffffffffffffffffffffff16610da2610a2f565b73ffffffffffffffffffffffffffffffffffffffff1614610df8576040517f08c379a0000000000000000000000000000000000000000000000000000000008152600401610def90612395565b60405180910390fd5b600073ffffffffffffffffffffffffffffffffffffffff168173ffffffffffffffffffffffffffffffffffffffff161415610e68576040517f08c379a0000000000000000000000000000000000000000000000000000000008152600401610e5f906128e6565b60405180910390fd5b610e71816115ab565b50565b60007f01ffc9a7000000000000000000000000000000000000000000000000000000007bffffffffffffffffffffffffffffffffffffffffffffffffffffffff1916827bffffffffffffffffffffffffffffffffffffffffffffffffffffffff1916149050919050565b600033905090565b6001816000016000828254019250508190555050565b600081600001549050919050565b600073ffffffffffffffffffffffffffffffffffffffff168273ffffffffffffffffffffffffffffffffffffffff161415610f7a576040517f08c379a0000000000000000000000000000000000000000000000000000000008152600401610f7190612952565b60405180910390fd5b610f838161114c565b15610fc3576040517f08c379a0000000000000000000000000000000000000000000000000000000008152600401610fba906129be565b60405180910390fd5b610fcf600083836118f8565b6001600360008473ffffffffffffffffffffffffffffffffffffffff1673ffffffffffffffffffffffffffffffffffffffff168152602001908152602001600020600082825461101f9190612a0d565b92505081905550816002600083815260200190815260200160002060006101000a81548173ffffffffffffffffffffffffffffffffffffffff021916908373ffffffffffffffffffffffffffffffffffffffff160217905550808273ffffffffffffffffffffffffffffffffffffffff16600073ffffffffffffffffffffffffffffffffffffffff167fddf252ad1be2c89b69c2b068fc378daa952ba7f163c4a11628f55a4df523b3ef60405160405180910390a45050565b6110e18261114c565b611120576040517f08c379a000000000000000000000000000000000000000000000000000000000815260040161111790612ad5565b60405180910390fd5b80600660008481526020019081526020016000209080519060200190611147929190611bf9565b505050565b60008073ffffffffffffffffffffffffffffffffffffffff166002600084815260200190815260200160002060009054906101000a900473ffffffffffffffffffffffffffffffffffffffff1673ffffffffffffffffffffffffffffffffffffffff1614159050919050565b816004600083815260200190815260200160002060006101000a81548173ffffffffffffffffffffffffffffffffffffffff021916908373ffffffffffffffffffffffffffffffffffffffff160217905550808273ffffffffffffffffffffffffffffffffffffffff1661122b8361083d565b73ffffffffffffffffffffffffffffffffffffffff167f8c5be1e5ebec7d5bd14f71427d1e84f3dd0314c0f7b2291e5b200ac8c7c3b92560405160405180910390a45050565b600061127c8261114c565b6112bb576040517f08c379a00000000000000000000000000000000000000000000000000000000081526004016112b290612b67565b60405180910390fd5b60006112c68361083d565b90508073ffffffffffffffffffffffffffffffffffffffff168473ffffffffffffffffffffffffffffffffffffffff16148061133557508373ffffffffffffffffffffffffffffffffffffffff1661131d84610620565b73ffffffffffffffffffffffffffffffffffffffff16145b8061134657506113458185610ce8565b5b91505092915050565b8273ffffffffffffffffffffffffffffffffffffffff1661136f8261083d565b73ffffffffffffffffffffffffffffffffffffffff16146113c5576040517f08c379a00000000000000000000000000000000000000000000000000000000081526004016113bc90612bf9565b60405180910390fd5b600073ffffffffffffffffffffffffffffffffffffffff168273ffffffffffffffffffffffffffffffffffffffff161415611435576040517f08c379a000000000000000000000000000000000000000000000000000000000815260040161142c90612c8b565b60405180910390fd5b6114408383836118f8565b61144b6000826111b8565b6001600360008573ffffffffffffffffffffffffffffffffffffffff1673ffffffffffffffffffffffffffffffffffffffff168152602001908152602001600020600082825461149b9190612cab565b925050819055506001600360008473ffffffffffffffffffffffffffffffffffffffff1673ffffffffffffffffffffffffffffffffffffffff16815260200190815260200160002060008282546114f29190612a0d565b92505081905550816002600083815260200190815260200160002060006101000a81548173ffffffffffffffffffffffffffffffffffffffff021916908373ffffffffffffffffffffffffffffffffffffffff160217905550808273ffffffffffffffffffffffffffffffffffffffff168473ffffffffffffffffffffffffffffffffffffffff167fddf252ad1be2c89b69c2b068fc378daa952ba7f163c4a11628f55a4df523b3ef60405160405180910390a4505050565b6000600760009054906101000a900473ffffffffffffffffffffffffffffffffffffffff16905081600760006101000a81548173ffffffffffffffffffffffffffffffffffffffff021916908373ffffffffffffffffffffffffffffffffffffffff1602179055508173ffffffffffffffffffffffffffffffffffffffff168173ffffffffffffffffffffffffffffffffffffffff167f8be0079c531659141344cd1fd0a4f28419497f9722a3daafe3b4186f6b6457e060405160405180910390a35050565b8173ffffffffffffffffffffffffffffffffffffffff168373ffffffffffffffffffffffffffffffffffffffff1614156116e0576040517f08c379a00000000000000000000000000000000000000000000000000000000081526004016116d790612d2b565b60405180910390fd5b80600560008573ffffffffffffffffffffffffffffffffffffffff1673ffffffffffffffffffffffffffffffffffffffff16815260200190815260200160002060008473ffffffffffffffffffffffffffffffffffffffff1673ffffffffffffffffffffffffffffffffffffffff16815260200190815260200160002060006101000a81548160ff0219169083151502179055508173ffffffffffffffffffffffffffffffffffffffff168373ffffffffffffffffffffffffffffffffffffffff167f17307eab39ab6107e8899845ad3d59bd9653f200f220920489ca2b5937696c31836040516117d19190611d50565b60405180910390a3505050565b6117e984848461134f565b6117f5848484846118fd565b611834576040517f08c379a000000000000000000000000000000000000000000000000000000000815260040161182b90612dbd565b60405180910390fd5b50505050565b606060405180602001604052806000815250905090565b606061185c8261114c565b61189b576040517f08c379a000000000000000000000000000000000000000000000000000000000815260040161189290612e4f565b60405180910390fd5b60006118a561183a565b905060008151116118c557604051806020016040528060008152506118f0565b806118cf84611a85565b6040516020016118e0929190612850565b6040516020818303038152906040525b915050919050565b505050565b600061191e8473ffffffffffffffffffffffffffffffffffffffff16611be6565b15611a78578373ffffffffffffffffffffffffffffffffffffffff1663150b7a02611947610ede565b8786866040518563ffffffff1660e01b81526004016119699493929190612ec4565b6020604051808303816000875af19250505080156119a557506040513d601f19601f820116820180604052508101906119a29190612f25565b60015b611a28573d80600081146119d5576040519150601f19603f3d011682016040523d82523d6000602084013e6119da565b606091505b50600081511415611a20576040517f08c379a0000000000000000000000000000000000000000000000000000000008152600401611a1790612dbd565b60405180910390fd5b805181602001fd5b63150b7a0260e01b7bffffffffffffffffffffffffffffffffffffffffffffffffffffffff1916817bffffffffffffffffffffffffffffffffffffffffffffffffffffffff191614915050611a7d565b600190505b949350505050565b60606000821415611acd576040518060400160405280600181526020017f30000000000000000000000000000000000000000000000000000000000000008152509050611be1565b600082905060005b60008214611aff578080611ae890612f52565b915050600a82611af89190612fca565b9150611ad5565b60008167ffffffffffffffff811115611b1b57611b1a611d86565b5b6040519080825280601f01601f191660200182016040528015611b4d5781602001600182028036833780820191505090505b5090505b60008514611bda57600182611b669190612cab565b9150600a85611b759190612ffb565b6030611b819190612a0d565b60f81b818381518110611b9757611b9661302c565b5b60200101907effffffffffffffffffffffffffffffffffffffffffffffffffffffffffffff1916908160001a905350600a85611bd39190612fca565b9450611b51565b8093505050505b919050565b600080823b905060008111915050919050565b828054611c05906123e4565b90600052602060002090601f016020900481019282611c275760008555611c6e565b82601f10611c4057805160ff1916838001178555611c6e565b82800160010185558215611c6e579182015b82811115611c6d578251825591602001919060010190611c52565b5b509050611c7b9190611c7f565b5090565b5b80821115611c98576000816000905550600101611c80565b5090565b6000604051905090565b600080fd5b600080fd5b60007fffffffff0000000000000000000000000000000000000000000000000000000082169050919050565b611ce581611cb0565b8114611cf057600080fd5b50565b600081359050611d0281611cdc565b92915050565b600060208284031215611d1e57611d1d611ca6565b5b6000611d2c84828501611cf3565b91505092915050565b60008115159050919050565b611d4a81611d35565b82525050565b6000602082019050611d656000830184611d41565b92915050565b600080fd5b600080fd5b6000601f19601f8301169050919050565b7f4e487b7100000000000000000000000000000000000000000000000000000000600052604160045260246000fd5b611dbe82611d75565b810181811067ffffffffffffffff82111715611ddd57611ddc611d86565b5b80604052505050565b6000611df0611c9c565b9050611dfc8282611db5565b919050565b600067ffffffffffffffff821115611e1c57611e1b611d86565b5b611e2582611d75565b9050602081019050919050565b82818337600083830152505050565b6000611e54611e4f84611e01565b611de6565b905082815260208101848484011115611e7057611e6f611d70565b5b611e7b848285611e32565b509392505050565b600082601f830112611e9857611e97611d6b565b5b8135611ea8848260208601611e41565b91505092915050565b600060208284031215611ec757611ec6611ca6565b5b600082013567ffffffffffffffff811115611ee557611ee4611cab565b5b611ef184828501611e83565b91505092915050565b6000819050919050565b611f0d81611efa565b82525050565b6000602082019050611f286000830184611f04565b92915050565b600081519050919050565b600082825260208201905092915050565b60005b83811015611f68578082015181840152602081019050611f4d565b83811115611f77576000848401525b50505050565b6000611f8882611f2e565b611f928185611f39565b9350611fa2818560208601611f4a565b611fab81611d75565b840191505092915050565b60006020820190508181036000830152611fd08184611f7d565b905092915050565b611fe181611efa565b8114611fec57600080fd5b50565b600081359050611ffe81611fd8565b92915050565b60006020828403121561201a57612019611ca6565b5b600061202884828501611fef565b91505092915050565b600073ffffffffffffffffffffffffffffffffffffffff82169050919050565b600061205c82612031565b9050919050565b61206c81612051565b82525050565b60006020820190506120876000830184612063565b92915050565b61209681612051565b81146120a157600080fd5b50565b6000813590506120b38161208d565b92915050565b600080604083850312156120d0576120cf611ca6565b5b60006120de858286016120a4565b92505060206120ef85828601611fef565b9150509250929050565b60008060006060848603121561211257612111611ca6565b5b6000612120868287016120a4565b9350506020612131868287016120a4565b925050604061214286828701611fef565b9150509250925092565b60006020828403121561216257612161611ca6565b5b6000612170848285016120a4565b91505092915050565b61218281611d35565b811461218d57600080fd5b50565b60008135905061219f81612179565b92915050565b600080604083850312156121bc576121bb611ca6565b5b60006121ca858286016120a4565b92505060206121db85828601612190565b9150509250929050565b600067ffffffffffffffff821115612200576121ff611d86565b5b61220982611d75565b9050602081019050919050565b6000612229612224846121e5565b611de6565b90508281526020810184848401111561224557612244611d70565b5b612250848285611e32565b509392505050565b600082601f83011261226d5761226c611d6b565b5b813561227d848260208601612216565b91505092915050565b600080600080608085870312156122a05761229f611ca6565b5b60006122ae878288016120a4565b94505060206122bf878288016120a4565b93505060406122d087828801611fef565b925050606085013567ffffffffffffffff8111156122f1576122f0611cab565b5b6122fd87828801612258565b91505092959194509250565b600080604083850312156123205761231f611ca6565b5b600061232e858286016120a4565b925050602061233f858286016120a4565b9150509250929050565b7f4f776e61626c653a2063616c6c6572206973206e6f7420746865206f776e6572600082015250565b600061237f602083611f39565b915061238a82612349565b602082019050919050565b600060208201905081810360008301526123ae81612372565b9050919050565b7f4e487b7100000000000000000000000000000000000000000000000000000000600052602260045260246000fd5b600060028204905060018216806123fc57607f821691505b602082108114156124105761240f6123b5565b5b50919050565b7f4552433732313a20617070726f76656420717565727920666f72206e6f6e657860008201527f697374656e7420746f6b656e0000000000000000000000000000000000000000602082015250565b6000612472602c83611f39565b915061247d82612416565b604082019050919050565b600060208201905081810360008301526124a181612465565b9050919050565b7f4552433732313a20617070726f76616c20746f2063757272656e74206f776e6560008201527f7200000000000000000000000000000000000000000000000000000000000000602082015250565b6000612504602183611f39565b915061250f826124a8565b604082019050919050565b60006020820190508181036000830152612533816124f7565b9050919050565b7f4552433732313a20617070726f76652063616c6c6572206973206e6f74206f7760008201527f6e6572206e6f7220617070726f76656420666f7220616c6c0000000000000000602082015250565b6000612596603883611f39565b91506125a18261253a565b604082019050919050565b600060208201905081810360008301526125c581612589565b9050919050565b7f4552433732313a207472616e736665722063616c6c6572206973206e6f74206f60008201527f776e6572206e6f7220617070726f766564000000000000000000000000000000602082015250565b6000612628603183611f39565b9150612633826125cc565b604082019050919050565b600060208201905081810360008301526126578161261b565b9050919050565b7f4552433732313a206f776e657220717565727920666f72206e6f6e657869737460008201527f656e7420746f6b656e0000000000000000000000000000000000000000000000602082015250565b60006126ba602983611f39565b91506126c58261265e565b604082019050919050565b600060208201905081810360008301526126e9816126ad565b9050919050565b7f4552433732313a2062616c616e636520717565727920666f7220746865207a6560008201527f726f206164647265737300000000000000000000000000000000000000000000602082015250565b600061274c602a83611f39565b9150612757826126f0565b604082019050919050565b6000602082019050818103600083015261277b8161273f565b9050919050565b7f45524337323155524953746f726167653a2055524920717565727920666f722060008201527f6e6f6e6578697374656e7420746f6b656e000000000000000000000000000000602082015250565b60006127de603183611f39565b91506127e982612782565b604082019050919050565b6000602082019050818103600083015261280d816127d1565b9050919050565b600081905092915050565b600061282a82611f2e565b6128348185612814565b9350612844818560208601611f4a565b80840191505092915050565b600061285c828561281f565b9150612868828461281f565b91508190509392505050565b7f4f776e61626c653a206e6577206f776e657220697320746865207a65726f206160008201527f6464726573730000000000000000000000000000000000000000000000000000602082015250565b60006128d0602683611f39565b91506128db82612874565b604082019050919050565b600060208201905081810360008301526128ff816128c3565b9050919050565b7f4552433732313a206d696e7420746f20746865207a65726f2061646472657373600082015250565b600061293c602083611f39565b915061294782612906565b602082019050919050565b6000602082019050818103600083015261296b8161292f565b9050919050565b7f4552433732313a20746f6b656e20616c7265616479206d696e74656400000000600082015250565b60006129a8601c83611f39565b91506129b382612972565b602082019050919050565b600060208201905081810360008301526129d78161299b565b9050919050565b7f4e487b7100000000000000000000000000000000000000000000000000000000600052601160045260246000fd5b6000612a1882611efa565b9150612a2383611efa565b9250827fffffffffffffffffffffffffffffffffffffffffffffffffffffffffffffffff03821115612a5857612a576129de565b5b828201905092915050565b7f45524337323155524953746f726167653a2055524920736574206f66206e6f6e60008201527f6578697374656e7420746f6b656e000000000000000000000000000000000000602082015250565b6000612abf602e83611f39565b9150612aca82612a63565b604082019050919050565b60006020820190508181036000830152612aee81612ab2565b9050919050565b7f4552433732313a206f70657261746f7220717565727920666f72206e6f6e657860008201527f697374656e7420746f6b656e0000000000000000000000000000000000000000602082015250565b6000612b51602c83611f39565b9150612b5c82612af5565b604082019050919050565b60006020820190508181036000830152612b8081612b44565b9050919050565b7f4552433732313a207472616e73666572206f6620746f6b656e2074686174206960008201527f73206e6f74206f776e0000000000000000000000000000000000000000000000602082015250565b6000612be3602983611f39565b9150612bee82612b87565b604082019050919050565b60006020820190508181036000830152612c1281612bd6565b9050919050565b7f4552433732313a207472616e7366657220746f20746865207a65726f2061646460008201527f7265737300000000000000000000000000000000000000000000000000000000602082015250565b6000612c75602483611f39565b9150612c8082612c19565b604082019050919050565b60006020820190508181036000830152612ca481612c68565b9050919050565b6000612cb682611efa565b9150612cc183611efa565b925082821015612cd457612cd36129de565b5b828203905092915050565b7f4552433732313a20617070726f766520746f2063616c6c657200000000000000600082015250565b6000612d15601983611f39565b9150612d2082612cdf565b602082019050919050565b60006020820190508181036000830152612d4481612d08565b9050919050565b7f4552433732313a207472616e7366657220746f206e6f6e20455243373231526560008201527f63656976657220696d706c656d656e7465720000000000000000000000000000602082015250565b6000612da7603283611f39565b9150612db282612d4b565b604082019050919050565b60006020820190508181036000830152612dd681612d9a565b9050919050565b7f4552433732314d657461646174613a2055524920717565727920666f72206e6f60008201527f6e6578697374656e7420746f6b656e0000000000000000000000000000000000602082015250565b6000612e39602f83611f39565b9150612e4482612ddd565b604082019050919050565b60006020820190508181036000830152612e6881612e2c565b9050919050565b600081519050919050565b600082825260208201905092915050565b6000612e9682612e6f565b612ea08185612e7a565b9350612eb0818560208601611f4a565b612eb981611d75565b840191505092915050565b6000608082019050612ed96000830187612063565b612ee66020830186612063565b612ef36040830185611f04565b8181036060830152612f058184612e8b565b905095945050505050565b600081519050612f1f81611cdc565b92915050565b600060208284031215612f3b57612f3a611ca6565b5b6000612f4984828501612f10565b91505092915050565b6000612f5d82611efa565b91507fffffffffffffffffffffffffffffffffffffffffffffffffffffffffffffffff821415612f9057612f8f6129de565b5b600182019050919050565b7f4e487b7100000000000000000000000000000000000000000000000000000000600052601260045260246000fd5b6000612fd582611efa565b9150612fe083611efa565b925082612ff057612fef612f9b565b5b828204905092915050565b600061300682611efa565b915061301183611efa565b92508261302157613020612f9b565b5b828206905092915050565b7f4e487b7100000000000000000000000000000000000000000000000000000000600052603260045260246000fdfea2646970667358221220ebd3cb80d791a17e5682b6cd1d1a9fcf34b931c3f2257a9f4c5103d533112b7d64736f6c634300080b0033",
  "immutableReferences": {},
  "source": "// SPDX-License-Identifier: MIT\n\npragma solidity ^0.8.0;\n\nimport \"@openzeppelin/contracts/token/ERC721/ERC721.sol\";\nimport \"@openzeppelin/contracts/utils/Counters.sol\";\nimport \"@openzeppelin/contracts/access/Ownable.sol\";\nimport \"@openzeppelin/contracts/token/ERC721/extensions/ERC721URIStorage.sol\";\n\n\ncontract SoongToken is ERC721URIStorage, Ownable {\n\n    using Counters for Counters.Counter;\n    Counters.Counter private _tokenIds;\n\n    constructor() ERC721(\"SoongToken\", \"STK\") {}\n\n    mapping(uint256 => address) public SoongToOwner;\n\n    function mintSoongToken(string memory tokenURI) external onlyOwner returns (uint256) {\n\n        _tokenIds.increment();\n        uint newTokenId = _tokenIds.current();\n        SoongToOwner[newTokenId] = msg.sender;\n\n        _mint(msg.sender, newTokenId);\n        _setTokenURI(newTokenId, tokenURI);\n        return newTokenId;\n    }\n\n}",
  "sourcePath": "/home/jeongdaeyong/Desktop/SMARTCONTRACT/-NFT/contracts/SoongToken.sol",
  "compiler": {
    "name": "solc",
    "version": "0.8.11+commit.d7f03943.Emscripten.clang"
  },
  "schemaVersion": "3.4.4",
  "updatedAt": "2022-01-22T12:02:23.875Z",
  "devdoc": {
    "kind": "dev",
    "methods": {
      "approve(address,uint256)": {
        "details": "See {IERC721-approve}."
      },
      "balanceOf(address)": {
        "details": "See {IERC721-balanceOf}."
      },
      "getApproved(uint256)": {
        "details": "See {IERC721-getApproved}."
      },
      "isApprovedForAll(address,address)": {
        "details": "See {IERC721-isApprovedForAll}."
      },
      "name()": {
        "details": "See {IERC721Metadata-name}."
      },
      "owner()": {
        "details": "Returns the address of the current owner."
      },
      "ownerOf(uint256)": {
        "details": "See {IERC721-ownerOf}."
      },
      "renounceOwnership()": {
        "details": "Leaves the contract without owner. It will not be possible to call `onlyOwner` functions anymore. Can only be called by the current owner. NOTE: Renouncing ownership will leave the contract without an owner, thereby removing any functionality that is only available to the owner."
      },
      "safeTransferFrom(address,address,uint256)": {
        "details": "See {IERC721-safeTransferFrom}."
      },
      "safeTransferFrom(address,address,uint256,bytes)": {
        "details": "See {IERC721-safeTransferFrom}."
      },
      "setApprovalForAll(address,bool)": {
        "details": "See {IERC721-setApprovalForAll}."
      },
      "supportsInterface(bytes4)": {
        "details": "See {IERC165-supportsInterface}."
      },
      "symbol()": {
        "details": "See {IERC721Metadata-symbol}."
      },
      "tokenURI(uint256)": {
        "details": "See {IERC721Metadata-tokenURI}."
      },
      "transferFrom(address,address,uint256)": {
        "details": "See {IERC721-transferFrom}."
      },
      "transferOwnership(address)": {
        "details": "Transfers ownership of the contract to a new account (`newOwner`). Can only be called by the current owner."
      }
    },
    "version": 1
  },
  "userdoc": {
    "kind": "user",
    "methods": {},
    "version": 1
  }
}